{
  "_format": "hh-sol-artifact-1",
  "contractName": "HealthRecordRegistry",
  "sourceName": "contracts/HealthRecordRegistry.sol",
  "abi": [
    {
      "inputs": [
        {
          "internalType": "address",
          "name": "backendWallet",
          "type": "address"
        }
      ],
      "stateMutability": "nonpayable",
      "type": "constructor"
    },
    {
      "anonymous": false,
      "inputs": [
        {
          "indexed": true,
          "internalType": "string",
          "name": "patientId",
          "type": "string"
        },
        {
          "indexed": true,
          "internalType": "address",
          "name": "grantedBy",
          "type": "address"
        },
        {
          "indexed": false,
          "internalType": "uint256",
          "name": "timestamp",
          "type": "uint256"
        }
      ],
      "name": "ConsentGranted",
      "type": "event"
    },
    {
      "anonymous": false,
      "inputs": [
        {
          "indexed": true,
          "internalType": "string",
          "name": "patientId",
          "type": "string"
        },
        {
          "indexed": true,
          "internalType": "bytes32",
          "name": "recordHash",
          "type": "bytes32"
        },
        {
          "indexed": true,
          "internalType": "address",
          "name": "storedBy",
          "type": "address"
        },
        {
          "indexed": false,
          "internalType": "uint256",
          "name": "timestamp",
          "type": "uint256"
        }
      ],
      "name": "RecordStored",
      "type": "event"
    },
    {
      "inputs": [
        {
          "internalType": "string",
          "name": "patientId",
          "type": "string"
        }
      ],
      "name": "getConsentTimestamp",
      "outputs": [
        {
          "internalType": "uint256",
          "name": "",
          "type": "uint256"
        }
      ],
      "stateMutability": "view",
      "type": "function"
    },
    {
      "inputs": [
        {
          "internalType": "string",
          "name": "patientId",
          "type": "string"
        }
      ],
      "name": "getRecordHashes",
      "outputs": [
        {
          "internalType": "bytes32[]",
          "name": "",
          "type": "bytes32[]"
        }
      ],
      "stateMutability": "view",
      "type": "function"
    },
    {
      "inputs": [
        {
          "internalType": "string",
          "name": "patientId",
          "type": "string"
        }
      ],
      "name": "grantConsent",
      "outputs": [],
      "stateMutability": "nonpayable",
      "type": "function"
    },
    {
      "inputs": [
        {
          "internalType": "string",
          "name": "patientId",
          "type": "string"
        }
      ],
      "name": "hasConsent",
      "outputs": [
        {
          "internalType": "bool",
          "name": "",
          "type": "bool"
        }
      ],
      "stateMutability": "view",
      "type": "function"
    },
    {
      "inputs": [],
      "name": "owner",
      "outputs": [
        {
          "internalType": "address",
          "name": "",
          "type": "address"
        }
      ],
      "stateMutability": "view",
      "type": "function"
    },
    {
      "inputs": [
        {
          "internalType": "string",
          "name": "patientId",
          "type": "string"
        },
        {
          "internalType": "bytes32",
          "name": "recordHash",
          "type": "bytes32"
        }
      ],
      "name": "storeRecordHash",
      "outputs": [],
      "stateMutability": "nonpayable",
      "type": "function"
    },
    {
      "inputs": [
        {
          "internalType": "string",
          "name": "patientId",
          "type": "string"
        },
        {
          "internalType": "bytes32",
          "name": "recordHash",
          "type": "bytes32"
        }
      ],
      "name": "verifyRecordHash",
      "outputs": [
        {
          "internalType": "bool",
          "name": "",
          "type": "bool"
        }
      ],
      "stateMutability": "view",
      "type": "function"
    }
  ],
  "bytecode": "0x60a06040523480156200001157600080fd5b5060405162000e7a38038062000e7a83398181016040528101906200003791906200014e565b600073ffffffffffffffffffffffffffffffffffffffff168173ffffffffffffffffffffffffffffffffffffffff1603620000a9576040517f08c379a0000000000000000000000000000000000000000000000000000000008152600401620000a090620001e1565b60405180910390fd5b8073ffffffffffffffffffffffffffffffffffffffff1660808173ffffffffffffffffffffffffffffffffffffffff16815250505062000203565b600080fd5b600073ffffffffffffffffffffffffffffffffffffffff82169050919050565b60006200011682620000e9565b9050919050565b620001288162000109565b81146200013457600080fd5b50565b60008151905062000148816200011d565b92915050565b600060208284031215620001675762000166620000e4565b5b6000620001778482850162000137565b91505092915050565b600082825260208201905092915050565b7f496e76616c6964206261636b656e642077616c6c657400000000000000000000600082015250565b6000620001c960168362000180565b9150620001d68262000191565b602082019050919050565b60006020820190508181036000830152620001fc81620001ba565b9050919050565b608051610c4d6200022d60003960008181610213015281816104a601526104ca0152610c4d6000f3fe608060405234801561001057600080fd5b506004361061007d5760003560e01c80637caaf9581161005b5780637caaf958146100fe5780638da5cb5b1461012e578063b9df9bdc1461014c578063f715d58d146101685761007d565b80631aa5b812146100825780631cca21f2146100b257806370f22999146100ce575b600080fd5b61009c6004803603810190610097919061073b565b610198565b6040516100a99190610850565b60405180910390f35b6100cc60048036038101906100c7919061073b565b610211565b005b6100e860048036038101906100e3919061073b565b6103ac565b6040516100f5919061088b565b60405180910390f35b610118600480360381019061011391906108d2565b6103d7565b604051610125919061094d565b60405180910390f35b6101366104a4565b60405161014391906109a9565b60405180910390f35b610166600480360381019061016191906108d2565b6104c8565b005b610182600480360381019061017d919061073b565b610694565b60405161018f919061094d565b60405180910390f35b6060600083836040516101ac929190610a03565b908152602001604051809103902080548060200260200160405190810160405280929190818152602001828054801561020457602002820191906000526020600020905b8154815260200190600101908083116101f0575b5050505050905092915050565b7f000000000000000000000000000000000000000000000000000000000000000073ffffffffffffffffffffffffffffffffffffffff163373ffffffffffffffffffffffffffffffffffffffff161461029f576040517f08c379a000000000000000000000000000000000000000000000000000000000815260040161029690610a79565b60405180910390fd5b600082829050116102e5576040517f08c379a00000000000000000000000000000000000000000000000000000000081526004016102dc90610ae5565b60405180910390fd5b60018083836040516102f8929190610a03565b908152602001604051809103902060006101000a81548160ff0219169083151502179055504260028383604051610330929190610a03565b9081526020016040518091039020819055503373ffffffffffffffffffffffffffffffffffffffff168282604051610369929190610a03565b60405180910390207fb0554f3f416c1eca460915cc5114ab4edbe2ce04e5ed5f7f6506802d4793244f426040516103a0919061088b565b60405180910390a35050565b6000600283836040516103c0929190610a03565b908152602001604051809103902054905092915050565b600080600085856040516103ec929190610a03565b908152602001604051809103902080548060200260200160405190810160405280929190818152602001828054801561044457602002820191906000526020600020905b815481526020019060010190808311610430575b5050505050905060005b8151811015610496578382828151811061046b5761046a610b05565b5b6020026020010151036104835760019250505061049d565b808061048e90610b63565b91505061044e565b5060009150505b9392505050565b7f000000000000000000000000000000000000000000000000000000000000000081565b7f000000000000000000000000000000000000000000000000000000000000000073ffffffffffffffffffffffffffffffffffffffff163373ffffffffffffffffffffffffffffffffffffffff1614610556576040517f08c379a000000000000000000000000000000000000000000000000000000000815260040161054d90610a79565b60405180910390fd5b6000838390501161059c576040517f08c379a000000000000000000000000000000000000000000000000000000000815260040161059390610ae5565b60405180910390fd5b6000801b81036105e1576040517f08c379a00000000000000000000000000000000000000000000000000000000081526004016105d890610bf7565b60405180910390fd5b600083836040516105f3929190610a03565b90815260200160405180910390208190806001815401808255809150506001900390600052602060002001600090919091909150553373ffffffffffffffffffffffffffffffffffffffff16818484604051610650929190610a03565b60405180910390207f3ecda711e22db01faaccc831e1b792b0cade79d120bfd308a107bb37f722b8b642604051610687919061088b565b60405180910390a4505050565b6000600183836040516106a8929190610a03565b908152602001604051809103902060009054906101000a900460ff16905092915050565b600080fd5b600080fd5b600080fd5b600080fd5b600080fd5b60008083601f8401126106fb576106fa6106d6565b5b8235905067ffffffffffffffff811115610718576107176106db565b5b602083019150836001820283011115610734576107336106e0565b5b9250929050565b60008060208385031215610752576107516106cc565b5b600083013567ffffffffffffffff8111156107705761076f6106d1565b5b61077c858286016106e5565b92509250509250929050565b600081519050919050565b600082825260208201905092915050565b6000819050602082019050919050565b6000819050919050565b6107c7816107b4565b82525050565b60006107d983836107be565b60208301905092915050565b6000602082019050919050565b60006107fd82610788565b6108078185610793565b9350610812836107a4565b8060005b8381101561084357815161082a88826107cd565b9750610835836107e5565b925050600181019050610816565b5085935050505092915050565b6000602082019050818103600083015261086a81846107f2565b905092915050565b6000819050919050565b61088581610872565b82525050565b60006020820190506108a0600083018461087c565b92915050565b6108af816107b4565b81146108ba57600080fd5b50565b6000813590506108cc816108a6565b92915050565b6000806000604084860312156108eb576108ea6106cc565b5b600084013567ffffffffffffffff811115610909576109086106d1565b5b610915868287016106e5565b93509350506020610928868287016108bd565b9150509250925092565b60008115159050919050565b61094781610932565b82525050565b6000602082019050610962600083018461093e565b92915050565b600073ffffffffffffffffffffffffffffffffffffffff82169050919050565b600061099382610968565b9050919050565b6109a381610988565b82525050565b60006020820190506109be600083018461099a565b92915050565b600081905092915050565b82818337600083830152505050565b60006109ea83856109c4565b93506109f78385846109cf565b82840190509392505050565b6000610a108284866109de565b91508190509392505050565b600082825260208201905092915050565b7f4f6e6c79206261636b656e642077616c6c65742063616e207772697465000000600082015250565b6000610a63601d83610a1c565b9150610a6e82610a2d565b602082019050919050565b60006020820190508181036000830152610a9281610a56565b9050919050565b7f70617469656e7449642072657175697265640000000000000000000000000000600082015250565b6000610acf601283610a1c565b9150610ada82610a99565b602082019050919050565b60006020820190508181036000830152610afe81610ac2565b9050919050565b7f4e487b7100000000000000000000000000000000000000000000000000000000600052603260045260246000fd5b7f4e487b7100000000000000000000000000000000000000000000000000000000600052601160045260246000fd5b6000610b6e82610872565b91507fffffffffffffffffffffffffffffffffffffffffffffffffffffffffffffffff8203610ba057610b9f610b34565b5b600182019050919050565b7f7265636f72644861736820726571756972656400000000000000000000000000600082015250565b6000610be1601383610a1c565b9150610bec82610bab565b602082019050919050565b60006020820190508181036000830152610c1081610bd4565b905091905056fea2646970667358221220ec6b64a87e3eeb674411a633bd56ed4584c6e22a7e632ca2ee0e1aafcf5f141264736f6c63430008140033",
  "linkReferences": {},
  "deployedLinkReferences": {}
}